:0A031400C0F9A4B0999282F880901D
:08001200020F000002120000C1
:040003007F017E00FB
:0B000700EF1FAC0670011E4C70F622CB
:1002F300AD07AC06758915C374FF9CF58DC374FFF8
:100303009DF58BD2ABC2AFD28E308FFDC28EC28F22
:0103130022C7
:04029600AB07AA0602
:10029A007C007D641201C08F1A7C007D64AF03AEBE
:1002AA00021201C0AA04AB057C007D0AAF03AE02AC
:1002BA001201C08F1BAE02AF037C007D0A1201C07F
:1002CA00E51A90031493F580C2A2120003D2A2E5A4
:1002DA001B93F580C2A1120003D2A1AF05EF93F5DB
:0802EA0080C2A0120003D2A0A3
:0102F20022E9
:10023500D2A3C2A4D2A5C297C2A6D2A7D292C29374
:10024500758915D2ABD28ED2AFD28CE50F701CE575
:100255001014600D14601024027010C290C29180B9
:100265000AC290D2918004D290D291858C0E858A53
:1002750011E50EB58CF5750800F509E50975090058
:10028500F508750800851109AF09AE0812029680B8
:01029500BAAE
:03001B0002001EC2
:10001E00C0E0C0D075D000C000C004C005C006C08E
:01002E0007CA
:10002F007519507518C37517007516000513E5136C
:10003F0070020512758DFC758B18D28EC3E5139463
:10004F00D0E5129407500302012520900920910654
:10005F0085081485091520900930910685080A85B1
:10006F00090B30900930910685080C85090D751222
:10007F0000751300C3E5109402E50F9400500B05B3
:10008F0010E5107002050F020114D3E515950BE56D
:10009F0014950A4015D3E515950DE514950C400AF6
:1000AF00D297E4FFFE1202F3C297D3E50B9515E545
:1000BF000A95144016D3E50B950DE50A950C400BE8
:1000CF00D2977FC67E051202F3C297D3E50D951521
:1000DF00E50C95144016D3E50D950BE50C950A40EC
:1000EF000BD2977F8C7E0A1202F3C297750F0075A1
:1000FF001000758DFC758B18D2ABD28ED2AFD2900B
:10010F00C291120003781674FF120217EC4D4E4F76
:06011F0070F3F58CF58A77
:0F012500D007D006D005D004D000D0D0D0E03223
:03000000020134C6
:0C013400787FE4F6D8FD75811B02017B8A
:1001C000BC000BBE0029EF8DF084FFADF022E4CC23
:1001D000F875F008EF2FFFEE33FEEC33FCEE9DECEC
:1001E000984005FCEE9DFE0FD5F0E9E4CEFD22ED32
:1001F000F8F5F0EE8420D21CFEADF075F008EF2F7C
:10020000FFED33FD4007985006D5F0F222C398FD6C
:050210000FD5F0EA2209
:100215007401FF3395E0FEFDFC080808E6CF2FF6D4
:1002250018E6CE3EF618E6CD3DF618E6CC3CF622AD
:10014000020235E493A3F8E493A34003F68001F29E
:1001500008DFF48029E493A3F85407240CC8C333C0
:10016000C4540F4420C8834004F456800146F6DF8F
:10017000E4800B0102040810204080900012E47E0D
:10018000019360BCA3FF543F30E509541FFEE49384
:10019000A360010ECF54C025E060A840B8E493A34B
:1001A000FAE493A3F8E493A3C8C582C8CAC583CA76
:1001B000F0A3C8C582C8CAC583CADFE9DEE780BE2E
:01001A0000E5
:00000001FF
